1010000005600 0910000191209221409D094101ABC CORP               WELLS FARGO            00000001
5200 XYZ COMPANY                         2222222222PPDPAYROLL   120922120922   1121000240000043
6213910012680007 
710DEP000000000003373160 711XYZ CORPORATION 712ANYTOWN*MN\ 
d 713XYZ BANK 714WELLS FARGO BANK 
715444555666 
GB2222222222IATPAYMENT 000005505000000001288 
C. CHANG 9999 MAIN STREET 
US*54321\ 01123000456 01 
US 091000019US 
123 ELM STREET 
US*54321\ 
716ANYTOWN*MN\ 820000000100091000010000000000000000000155782222222222 9000001000001000000010009100001000000000000000000015578 9999999999999999999999999999999999999999999999999999999999999999999999999999999999999999999999
9999999999999999999999999999999999999999999999999999999999999999999999999999999999999999999999
9999999999999999999999999999999999999999999999999999999999999999999999999999999999999999999999
9999999999999999999999999999999999999999999999999999999999999999999999999999999999999999999999
9999999999999999999999999999999999999999999999999999999999999999999999999999999999999999999999
9999999999999999999999999999999999999999999999999999999999999999999999999999999999999999999999
9999999999999999999999999999999999999999999999999999999999999999999999999999999999999999999999
9999999999999999999999999999999999999999999999999999999999999999999999999999999999999999999999 
